{
  "_format": "hh-sol-artifact-1",
  "contractName": "DigitalIdentity",
  "sourceName": "contracts/DigitalIdentity.sol",
  "abi": [
    {
      "anonymous": false,
      "inputs": [
        {
          "indexed": true,
          "internalType": "address",
          "name": "user",
          "type": "address"
        },
        {
          "indexed": false,
          "internalType": "string",
          "name": "name",
          "type": "string"
        },
        {
          "indexed": false,
          "internalType": "string",
          "name": "email",
          "type": "string"
        },
        {
          "indexed": false,
          "internalType": "string",
          "name": "nationalId",
          "type": "string"
        }
      ],
      "name": "IdentityCreated",
      "type": "event"
    },
    {
      "inputs": [
        {
          "internalType": "string",
          "name": "_name",
          "type": "string"
        },
        {
          "internalType": "string",
          "name": "_email",
          "type": "string"
        },
        {
          "internalType": "string",
          "name": "_nationalId",
          "type": "string"
        }
      ],
      "name": "createIdentity",
      "outputs": [],
      "stateMutability": "nonpayable",
      "type": "function"
    },
    {
      "inputs": [
        {
          "internalType": "address",
          "name": "_user",
          "type": "address"
        }
      ],
      "name": "getIdentity",
      "outputs": [
        {
          "internalType": "string",
          "name": "",
          "type": "string"
        },
        {
          "internalType": "string",
          "name": "",
          "type": "string"
        },
        {
          "internalType": "string",
          "name": "",
          "type": "string"
        },
        {
          "internalType": "uint256",
          "name": "",
          "type": "uint256"
        }
      ],
      "stateMutability": "view",
      "type": "function"
    },
    {
      "inputs": [
        {
          "internalType": "address",
          "name": "",
          "type": "address"
        }
      ],
      "name": "identities",
      "outputs": [
        {
          "internalType": "string",
          "name": "name",
          "type": "string"
        },
        {
          "internalType": "string",
          "name": "email",
          "type": "string"
        },
        {
          "internalType": "string",
          "name": "nationalId",
          "type": "string"
        },
        {
          "internalType": "uint256",
          "name": "createdAt",
          "type": "uint256"
        }
      ],
      "stateMutability": "view",
      "type": "function"
    }
  ],
  "bytecode": "0x608060405234801561001057600080fd5b50610da6806100206000396000f3fe608060405234801561001057600080fd5b50600436106100415760003560e01c80632fea7b8114610046578063351c4a4614610079578063f653b81e14610095575b600080fd5b610060600480360381019061005b91906106ce565b6100c8565b60405161007094939291906107a4565b60405180910390f35b610093600480360381019061008e9190610933565b6102ff565b005b6100af60048036038101906100aa91906106ce565b610494565b6040516100bf94939291906107a4565b60405180910390f35b60608060606000806000808773ffffffffffffffffffffffffffffffffffffffff1673ffffffffffffffffffffffffffffffffffffffff16815260200190815260200160002060405180608001604052908160008201805461012990610a09565b80601f016020809104026020016040519081016040528092919081815260200182805461015590610a09565b80156101a25780601f10610177576101008083540402835291602001916101a2565b820191906000526020600020905b81548152906001019060200180831161018557829003601f168201915b505050505081526020016001820180546101bb90610a09565b80601f01602080910402602001604051908101604052809291908181526020018280546101e790610a09565b80156102345780601f1061020957610100808354040283529160200191610234565b820191906000526020600020905b81548152906001019060200180831161021757829003601f168201915b5050505050815260200160028201805461024d90610a09565b80601f016020809104026020016040519081016040528092919081815260200182805461027990610a09565b80156102c65780601f1061029b576101008083540402835291602001916102c6565b820191906000526020600020905b8154815290600101906020018083116102a957829003601f168201915b50505050508152602001600382015481525050905080600001518160200151826040015183606001519450945094509450509193509193565b60008060003373ffffffffffffffffffffffffffffffffffffffff1673ffffffffffffffffffffffffffffffffffffffff168152602001908152602001600020600001805461034d90610a09565b90501461038f576040517f08c379a000000000000000000000000000000000000000000000000000000000815260040161038690610a86565b60405180910390fd5b6040518060800160405280848152602001838152602001828152602001428152506000803373ffffffffffffffffffffffffffffffffffffffff1673ffffffffffffffffffffffffffffffffffffffff16815260200190815260200160002060008201518160000190816104039190610c52565b5060208201518160010190816104199190610c52565b50604082015181600201908161042f9190610c52565b50606082015181600301559050503373ffffffffffffffffffffffffffffffffffffffff167f95911fb49f91dc8b1803a7e8147f8ce6d20884753e8a2027059c7b76d5a9efe784848460405161048793929190610d24565b60405180910390a2505050565b60006020528060005260406000206000915090508060000180546104b790610a09565b80601f01602080910402602001604051908101604052809291908181526020018280546104e390610a09565b80156105305780601f1061050557610100808354040283529160200191610530565b820191906000526020600020905b81548152906001019060200180831161051357829003601f168201915b50505050509080600101805461054590610a09565b80601f016020809104026020016040519081016040528092919081815260200182805461057190610a09565b80156105be5780601f10610593576101008083540402835291602001916105be565b820191906000526020600020905b8154815290600101906020018083116105a157829003601f168201915b5050505050908060020180546105d390610a09565b80601f01602080910402602001604051908101604052809291908181526020018280546105ff90610a09565b801561064c5780601f106106215761010080835404028352916020019161064c565b820191906000526020600020905b81548152906001019060200180831161062f57829003601f168201915b5050505050908060030154905084565b6000604051905090565b600080fd5b600080fd5b600073ffffffffffffffffffffffffffffffffffffffff82169050919050565b600061069b82610670565b9050919050565b6106ab81610690565b81146106b657600080fd5b50565b6000813590506106c8816106a2565b92915050565b6000602082840312156106e4576106e3610666565b5b60006106f2848285016106b9565b91505092915050565b600081519050919050565b600082825260208201905092915050565b60005b8381101561073557808201518184015260208101905061071a565b60008484015250505050565b6000601f19601f8301169050919050565b600061075d826106fb565b6107678185610706565b9350610777818560208601610717565b61078081610741565b840191505092915050565b6000819050919050565b61079e8161078b565b82525050565b600060808201905081810360008301526107be8187610752565b905081810360208301526107d28186610752565b905081810360408301526107e68185610752565b90506107f56060830184610795565b95945050505050565b600080fd5b600080fd5b7f4e487b7100000000000000000000000000000000000000000000000000000000600052604160045260246000fd5b61084082610741565b810181811067ffffffffffffffff8211171561085f5761085e610808565b5b80604052505050565b600061087261065c565b905061087e8282610837565b919050565b600067ffffffffffffffff82111561089e5761089d610808565b5b6108a782610741565b9050602081019050919050565b82818337600083830152505050565b60006108d66108d184610883565b610868565b9050828152602081018484840111156108f2576108f1610803565b5b6108fd8482856108b4565b509392505050565b600082601f83011261091a576109196107fe565b5b813561092a8482602086016108c3565b91505092915050565b60008060006060848603121561094c5761094b610666565b5b600084013567ffffffffffffffff81111561096a5761096961066b565b5b61097686828701610905565b935050602084013567ffffffffffffffff8111156109975761099661066b565b5b6109a386828701610905565b925050604084013567ffffffffffffffff8111156109c4576109c361066b565b5b6109d086828701610905565b9150509250925092565b7f4e487b7100000000000000000000000000000000000000000000000000000000600052602260045260246000fd5b60006002820490506001821680610a2157607f821691505b602082108103610a3457610a336109da565b5b50919050565b7f4964656e7469747920616c726561647920657869737473000000000000000000600082015250565b6000610a70601783610706565b9150610a7b82610a3a565b602082019050919050565b60006020820190508181036000830152610a9f81610a63565b9050919050565b60008190508160005260206000209050919050565b60006020601f8301049050919050565b600082821b905092915050565b600060088302610b087fffffffffffffffffffffffffffffffffffffffffffffffffffffffffffffffff82610acb565b610b128683610acb565b95508019841693508086168417925050509392505050565b6000819050919050565b6000610b4f610b4a610b458461078b565b610b2a565b61078b565b9050919050565b6000819050919050565b610b6983610b34565b610b7d610b7582610b56565b848454610ad8565b825550505050565b600090565b610b92610b85565b610b9d818484610b60565b505050565b5b81811015610bc157610bb6600082610b8a565b600181019050610ba3565b5050565b601f821115610c0657610bd781610aa6565b610be084610abb565b81016020851015610bef578190505b610c03610bfb85610abb565b830182610ba2565b50505b505050565b600082821c905092915050565b6000610c2960001984600802610c0b565b1980831691505092915050565b6000610c428383610c18565b9150826002028217905092915050565b610c5b826106fb565b67ffffffffffffffff811115610c7457610c73610808565b5b610c7e8254610a09565b610c89828285610bc5565b600060209050601f831160018114610cbc5760008415610caa578287015190505b610cb48582610c36565b865550610d1c565b601f198416610cca86610aa6565b60005b82811015610cf257848901518255600182019150602085019450602081019050610ccd565b86831015610d0f5784890151610d0b601f891682610c18565b8355505b6001600288020188555050505b505050505050565b60006060820190508181036000830152610d3e8186610752565b90508181036020830152610d528185610752565b90508181036040830152610d668184610752565b905094935050505056fea2646970667358221220de47b7bf00fd90534c672f0bf2d1dbf362848ce76e03c7d87ba03f4ac333f07964736f6c63430008140033",
  "linkReferences": {},
  "deployedLinkReferences": {}
}